:020000040800F2
:10000000F8FF0120AD32090849330908954F05086A
:100010004933090849330908493309080000000039
:100020000000000000000000000000004933090843
:100030004933090800000000493309082D2005084C
:10004000493309084933090849330908493309087C
:100050004933090849330908A5130508CD130508D4
:10006000091405084514050881140508F90B00005A
:100070000D0C0000210C0000350C0000490C0000A4
:100080005D0C0000710C0000493309084933090870
:10009000493309084933090849330908BD140508DB
:1000A00049330908F52C040849330908E52C0408EC
:1000B000052D0408152D0408252D04089D48040865
:1000C0000148040861490408C5480408493309087F
:1000D000493309084D1100008D120000CD130000B6
:1000E000F91405084933090800000000F12D04083F
:1000F000C92D0408012E0408B92D0408850C000040
:10010000493309080D6C0408352D040849330908E2
:100110000D1500004D160000452D04088D6E0808D1
:10012000990C0000AD0C0000C10C0000D50C0000C3
:10013000E90C000049330908493309084933090823
:1001400000000000000000000000000000000000AF
:10015000FD0C0000110D0000250D00008D170000A2
:10016000254A04088949040849330908493309081C
:1001700049330908493309084933090800000000D8
:100180004933090849330908CD1800000D1A000049
:10019000493309084933090849330908493309082B
:1001A000493309084933090849330908493309081B
:1001B000493309084933090849330908E94A040859
:1001C0004D4A0408493309084933090849330908E5
:1001D00049330908AD760808493309084933090845
:1001E00049330908493309084933090849330908DB
:1001F00049330908493309084933090849330908CB
:1002000049330908493309084933090849330908BA
:10021000112E0408212E0408312E04084933090840
:100220004933090849330908493309080000000027
:10023000116C04084933090800000000493309081B
:10024000493309084933090849330908493309087A
:10025000493309084933090849330908493309086A
:10026000493309084933090849330908493309085A
:1002700049330908493309084933090800000000D7
:100280004933090800000000493309080000000054
:080290000000000049330908D9
:0828000000001E080000200882
:020000040804EE
:1000000030B5FAB18E464FEA014C034600F1C00507
:10001000002419680C3353F8042C43F8084C41EAC7
:100020000C0142EA0E02AB4243F80C1C43F8042CCC
:10003000EFD1D0F8C03043EA0E03C0E93144C0F834
:10004000C03030BD4FEA014E8C46DEE710B40C4C98
:100050006368002B11DD002004F1080C0146DCF878
:10006000AC3003F1C00259600C339342FBD1013034
:1000700063680CF5867C8342F1DC5DF8044B7047C5
:1000800004000020F0B5474C04EB401292F85434C1
:1000900003B9F0BD4FF4B47C434B00264FEA401E39
:1000A0000CFB004C9CF83A558CF83A6582F83A54AF
:1000B0001D785A7895420DD002EB420C560003EBA6
:1000C000CC0C9CF804C00CF1FF37012F5DD9BCF1BA
:1000D000030F55D004EB0E00A0F83814EFF3118392
:1000E000902282F3128890F83A24DBB2B0F83814E8
:1000F00042EA4102002192B280F83A1483F3118857
:100100001309247883EA122383EA0201DCB1130184
:10011000C943D0F850240124D0F83C049BB201F02C
:100120000F01D2F8AC2084400B4302F1C00059000B
:1001300013F4004F8BB202D15168214351600C324D
:100140008242F4D1F0BD1301D0F83C44D0F85024E1
:1001500001F00F0104F110009BB20124D2F8AC2091
:100160000B43844002F1C000590013F4004F8BB2DE
:1001700002D15168214351600C329042F4D1F0BD5C
:10018000571C07F00307AF42A4D0324403EBC2036D
:100190000344597C00299DD004EB0E03012283F80F
:1001A0003A2497E704000020A019002470B50F4EF0
:1001B00056F8803C002B17DD0D4C002504E056F866
:1001C000803C2034AB420FDD237F0135002BF6D07D
:1001D000E06800220028F2D0217D203411F076FA68
:1001E00056F8803CAB42EFDC012070BDFC100020D3
:1001F0003C040020704700BF024B03EB401090F816
:1002000055047047040000204368426D30B49A6181
:10021000EFF31182502383F312884168D2B2856CC8
:100220000B68046D23EA050323430B6082F31188F6
:10023000436981681A68096822F00102D0E908540C
:100240001A60826A1D605C615A60D0E90B429C6052
:10025000DA600023B0F86C2030BCCA6203777047C4
:10026000084A0346D0F8E4005268D3F8F010121A96
:1002700000209142B8BFC3F8F020012283F81C216E
:10028000704700BF001000E090F8DB30052B03D86A
:1002900090F81E31032B01D00020704790F82331D5
:1002A00003F0FB03022B0CBF0020072070474FF424
:1002B0000063838170474FF40063838170474FF47C
:1002C0000063838170474FF40063838170477047F8
:1002D00001207047012070472DE9F047DFF87C814D
:1002E0000E460746D8F86450B8F86820B8F86E9003
:1002F000C2EB25135200C2EBE502B8F96A506A431B
:1003000003FB03F5B8F96C302D135D43B8F9723077
:10031000AD134FEAE37E05EBE225A5F5FA31C8F807
:10032000805081FB010C03FB0CF200FB0E22A3FBAF
:10033000003E9644B8F970201B0A82FB014243EA52
:100340000E63120342EA145224031B194FF00004F7
:1003500042EB2E22A3FB093E02F5004209FB02EE0E
:100360004FEAEE734FEA6E0253EA6E0E6BD0B8F9A5
:1003700078904FEAE97E09FB0CFC00FB0ECCA9FB50
:1003800000908444B8F9760080FB01E148044FEA0C
:100390004E4140EADE3011EB0909D8F884104CEBED
:1003A0000000C1F5801C14EB0904B8F974100CF0BE
:1003B000004A40F6354900EBC1014AEA5C0A4FEABF
:1003C000CC7CBCEB04006AEB010AA0FB090109FB31
:1003D0000A1152F02FFDB8F97E404FEA613E814686
:1003E000430B04FB0EF24FEAE47C43EAC14303FBF8
:1003F0000C2CA4FB0342624404FB0EFE03FB02EE42
:10040000B8F97C20A4FB03439E44640E02FB01F375
:1004100044EACE1414EB000C4FEAE274A2FB092963
:1004200041EB6E6E04FB0031D40CB8F97A304944CC
:1004300044EA41341CEB04044EEBE141240A44EA53
:10044000016404EB03140FB1240A3C6026B105EBF0
:10045000850580352D123560BDE8F087A019002490
:1004600008B500684FF018F8B0B90C4A0C49537839
:1004700010781B0143EA0033907843EA1013D078D8
:10048000C1F88430137952791B0143EA003301200B
:1004900043EA12134B6608BD0020FCE7A0C8002405
:1004A000A01900243B4BDFED3C3A93F8891093F8F8
:1004B0008800090293F88A2093F88BC001EB004171
:1004C00093F88C0093ED266A0A4409024FEA002053
:1004D00093F88D1048BF02F17F42B8EEC66A00EB78
:1004E0000C4007EE902AB3F9A4200144000205EE67
:1004F000902AB3F9A020F8EEE77A48BF01F17F41D6
:1005000004EE902AB3F9A220F8EEE55A07EE101A8D
:1005100067EEA37A06EE902AF8EEE44AB3F99E203D
:10052000F8EEE66A012005EE102AB3F99C20E7EE0A
:10053000A54AB8EEC55A04EE102AB8EEC77AB3F948
:100540009220B8EEC44AA7EEA65AD3ED256A27EE4C
:10055000237A05EE902AA4EEA76AB3F99020F8EE6C
:10056000E66AF8EEE55A04EE902AF6EE003AE7EE77
:10057000046AF8EEE44AA5EE076A65EE875AB0EE23
:10058000667AE4EEA35AA7EE867AC3ED2B5A83ED82
:100590002A7A7047A01900240821843630B10A4B0A
:1005A000D3ED2A7AFDEEE77AC0ED007A51B1064B21
:1005B0009FED067AD3ED2B7A67EE877AFDEEE77A28
:1005C000C1ED007A704700BFA01900240000C842A6
:1005D000704700BF012070477047F52108B510F043
:1005E00009FE702818D008D8422817D0472817D0FD
:1005F000122814BF0020082008BDAC2812D006D84D
:1006000000F0FD00712814BF00200620F4E7AF2899
:1006100014BF00200920EFE70520EDE70C20EBE7F1
:100620000D20E9E70720E7E70020024B83F8B00040
:10063000704700BFA01900240269C3682DE9F04784
:1006400012EA03092AD005460E464FF000474FF044
:100650000008B9FA89F327FA03F21B3BD24309EAEF
:1006600002092A61042B16D8DFE803F0352C231A7F
:100670000300B36A002B37D003F1FF3AC6F8288095
:100680001FFA8AFA746A34B12368204651469847A3
:100690006468002CF8D1B9F1000FDAD1BDE8F08719
:1006A0007068696B036889B29847B9F1000FD0D1BF
:1006B000F4E7B068A96B036889B29847B9F1000FF5
:1006C000C7D1EBE7F068E96B036889B29847B9F1E5
:1006D000000FBED1E2E73069296C036889B2984700
:1006E000B9F1000FB5D1D9E7E96A1FFA81FAC9E774
:1006F000F8B590F8EE311C09013C062C0DD8164EC9
:10070000054603F00F0336F8140040FA03F2D2074F
:1007100003D595F8F971012F01D00120F8BD07FA32
:1007200003F33444013B184052F0ECFB227C1318D5
:100730000A4A02EBC30152F833208B881069184033
:10074000ECD00023084695F8EF21022185F8F93115
:1007500010F0BCFF3846F8BD504B0908541A00246D
:100760008069B4303FF050B92DE9F0411C4D11F0D3
:1007700081FC0026074669684FF48678002918DD59
:1007800000231C4608FB0352013392F805218B42DB
:1007900044EA0204F6D111F06DFCC01BB0F5FA6F0B
:1007A000CCBF002304F00103B3B169681E460029E1
:1007B000E6DC11F05FFC26B10A4B93F834244F2A93
:1007C00002D03046BDE8F081B3F83C243046013217
:1007D000A3F83C24BDE8F0813443E6B2EBE700BF68
:1007E00004000020A01900242DE9F04FAA4D8DB07F
:1007F0002B7802931BB901200DB0BDE8F08F6B6818
:10080000A64A002BD2F8406418DD05F10804002048
:10081000A349D4F8F430BFF34F8F03F59072C1F8B9
:100820005C3220339342FAD1BFF34F8FBFF36F8F07
:1008300001306B6804F586749842EADB9948182108
:10084000DFF878A250F8803C00F18C070693964BB5
:10085000A3FB0623954E5B09A6FB0326F60806EBD1
:100860008606A3EB4606924B13F8032C1C1F94F844
:1008700044B401FB023394F8341400220D33039185
:1008800050F8741C91460B93A0F17C030A920491DA
:100890000193134650F8781C0792069A0991F1B219
:1008A0004A4507EB8606089140F3DE80DAF81830F7
:1008B0000121DAF804207F4801FA02F2D3E93D145D
:1008C000201801EB4B0301EB4000984240F21781E6
:1008D0001D88154200F02F815D88154200F02D81A2
:1008E0009D88154200F02B81DD8808331542ECD13C
:1008F000A3EB010E03994F294FEA6E05CEF3470E85
:1009000000F01581984240F2FD80641B452C28BF01
:10091000452403EB4404A34280F0F48000259C4668
:100920000596A846294618881040884214D1588850
:100930001040814240F0DF8098881040814240F0B2
:10094000DC80D88808331040814206D19C4207D908
:10095000188810408842EAD002339C4200F2B080EE
:10096000B8F1110F059E40F2CD80C8F11503002BA0
:10097000C0F2C880AEF10A0E5FFA8EFB07D09D4030
:10098000C8F11408012303FA08F848EA05054A48A3
:1009900005F01F02C5F3C43300EB820200EB8303B2
:1009A0009169C5F344129B69C5F3842500EB82026B
:1009B00041EA033300EB8505916943EA0111AB6914
:1009C00041EA03214FF6FF7381EA112282EA1212F3
:1009D00002F00F02994298BF0F2A14BF0122002291
:1009E00000F0AF80039B4F2B00F0D080049B0133BD
:1009F0000493099B4FF6FF710133CDE9093297F853
:100A00005830089883420CD0B2683B689B1A3B6010
:100A10007B68326B9B1A7B600023B360336387F87B
:100A200058003B6801333B60B3680133B3604FF655
:100A3000FF73994274D17B6801337B60336B013360
:100A40003363029B0793019B09F101095C375C3614
:100A50001433B9F1080F0AF1200A019305D0069A60
:100A6000029B4A453FF722AF13B10C4B83F844B4C5
:100A7000079B1BB10B4B049A43F8742C0A9B1BB1C8
:100A8000084B099A43F8782C0123064A012082F882
:100A90008A300DB0BDE8F08F04000020A0190024BA
:100AA00000ED00E0FC1000201F85EB51CDCCCCCC3C
:100AB000A4190024C7FFFF7F504B09083C04002005
:100AC000A3EB0C0C364833F8021C4FEA6C0C1140B7
:100AD0000CF1010C80FB0C60A0EBEC704FF0010CF2
:100AE0000128B8BF01208540804401380CFA00F08D
:100AF0009C46054317E704332FE706332DE7039D94
:100B00004F2D10D0039B0BF1FF3B4F2B5FFA8BFB5C
:100B100099D1244AB2F83A340133A2F83A3492E730
:100B2000029B07938FE7591A4D10C1F3470E1D49D9
:100B3000A1F83EE4E6E60233DAE60433D8E606330B
:100B4000D6E6039B09094F2B09D0049BB1F5606FD2
:100B500003F10103049310D0019B99814FE7049B9B
:100B6000B1F5606F0F4A03F101030493B2F8383412
:100B700003F10103A2F83834EED10B9B13F80930CE
:100B80000D2BE9D18023019A937738E7049B05491F
:100B900001330493B1F838340133A1F8383428E72D
:100BA00056555555A019002410B5044653F070F958
:100BB0000146204689B2BDE81040FFF763BA00BF86
:100BC000F8B5264B1A785B789A4242D1244E736866
:100BD000002B23DD002506F10800224C2F46D0F81B
:100BE000AC30BFF34F8F03F1E002C4F8683220331A
:100BF0009342FAD1BFF34F8FBFF36F8F337813B1A6
:100C0000037F012B20D042690135716800F58670A1
:100C10001368A94243F001031360E0DC11F02AFAE3
:100C2000114BD3F86C43002C0DDD03F55C7303EB23
:100C3000C4041968083333F8042CC8689C4242EA9B
:100C40000002CA60F5D1F8BD80F8FC70FFF7DCFA4D
:100C5000D9E74CF025F80028B8D1F8BDA019002438
:100C60000400002000ED00E0FC100020F0B5044678
:100C7000D0F85C016F4B83B0A16804F596720E68E2
:100C8000C1B220F0FF0001921039A3FB0131090924
:100C90004FF032FFD4F81C110023019A012984F887
:100CA00020311CD004291AD0102900F0AE80402930
:100CB00015D0B1F5807F00F0AB80B1F5806F00F00A
:100CC000A780B1F5805F00F0AB80B1F5803F4FF0B9
:100CD0003C030CBF6FF008076FF4006701E06FF092
:100CE000080706F118053046E9583940E950D4F8AC
:100CF0001C114FF0B3FCD4F81C31012B18D0042B7D
:100D000016D0102B11D0402B12D0B3F5807F00F0FD
:100D10008380B3F5806F7FD0B3F5805F00F084806F
:100D2000B3F5803F06F1540502D04FF4006200E0B5
:100D300008222B684026D4F85C011343C2B220F08D
:100D4000FF012B60103A3B4BC4F8E860A3FB023272
:100D5000394BD4F80C51120913F802C0D4E93B36D0
:100D60005CF801703343354E3E403343D4F8F460B1
:100D70003343D4F8F8603343D4F8FC603343D4F8F9
:100D80000861334343F040034CF801300CEB01039E
:100D9000D5B15E6926F0070ED4F810613543D4F85A
:100DA000146145EA0E055D615CF8015025F0C075DF
:100DB0003543D4F818614CF801505CF8015025F423
:100DC000C00535434CF80150D4F8E450DD60D4F848
:100DD000E0509D601A4D5E683540D4F80061D4F84B
:100DE000044135435D60174B1344174A9B00914201
:100DF00018BF20331A6822F0FF0222431A600368EA
:100E000043F01003036003B0F0BD6FF4006768E7C0
:100E10006FF00807042364E706F11C05082288E741
:100E20006FF4006704235CE706F11C054FF40062D1
:100E30007FE700BFABAAAAAAE4BD09081F80FCFF98
:100E40000000FFFF00820010000002402DE9F04F7B
:100E5000DFF848B185B09BF8004024B90124204652
:100E600005B0BDE8F08F474BD3F8405411F002F9BC
:100E7000454A92F8AC3A002B00F0BC81434B02F19A
:100E80008C070BF5A7640026A3FB0513404D5B09F7
:100E9000A5FB0315ED0805EB8505A3EB4505D2F889
:100EA000B43AC31A0193EBB207EB85050293A2F1A2
:100EB0007C030093019A002A04DBD4F82431934286
:100EC00000F37C814FF4B47303FB06B393F85836F8
:100ED000002B00F0C080D4F85C11A3682D481A687C
:100EE000CBB221F0FF01103BA0FB03032A481B09F2
:100EF000C35C19444B68A1891FFA83FED368CEF105
:100F0000160E23EA0103BEF1070FD36040F2A3805F
:100F10001D4A012152F8743C8A46013342F8743C60
:100F20000022D4F8643190469C4603935CF8049BFD
:100F300048461DE0DCF80090B8F1140FA9EB00035F
:100F400048462DDC13F1080948BF03F117094FEAA1
:100F5000291308EB291803F1FF39013102FA03F3D1
:100F60000CF1040C0AFA09F28E4542EA030217D387
:100F70008E45DFD8C8F11503DCF800004FF01508E6
:100F8000E9E700BFA0190024FC1000201F85EB51E9
:100F9000CDCCCCCCABAAAAAAE4BD090804000020A1
:100FA000B8F1150F40F000819649C2F38423C2F3D3
:100FB000441001EB830301EB8000D3F89830D0F8A4
:100FC00098001B0243EA001302F01F00C2F3C43270
:100FD00001EB800001EB8202D0F89810D2F8982043
:100FE0000B4343EA023383EA132282EA121202F02D
:100FF0000F020F2A40F0D880C3F30F134FF6FF7291
:10100000934200F0D180B3F5606F00F0DC80009A6D
:10101000938197F85820029882420CD0A9683A68C8
:10102000521A3A607A68296B521A7A600022AA60D2
:101030002A6387F858003A6801323A60AA68013298
:10104000AA604FF6FF72934205D17B6801337B6043
:101050002B6B01332B63009B204601365C37143326
:101060005C3504F5B4740093FFF700FE664B93F80B
:10107000AC3AB3423FF71EAF63480121002280F82B
:101080008A10C0F8B42A002B3FF4E8AE9BF8102673
:10109000DBF8540612F0020FDBF8402511680A6AEB
:1010A0000CBF024342EA8002012B0A623FF4D6AE33
:1010B0009BF87827DBF8BC0712F0020FDBF8A826B4
:1010C00011680A6A0CBF024342EA8002022B0A62DC
:1010D0003FF4C4AE9BF8E028DBF8240912F0020FBD
:1010E000DBF8102811680A6A0CBF024342EA80024A
:1010F000032B0A623FF4B2AE9BF8482ADBF88C0A55
:1011000012F0020FDBF8782911680A6A0CBF02435B
:1011100042EA8002042B0A623FF4A0AE9BF8B02B97
:10112000DBF8F40B12F0020FDBF8E02A11680A6A10
:101130000CBF024342EA8002052B0A623FF48EAEE6
:101140009BF8182DDBF85C0D12F0020FDBF8482C31
:1011500011680A6A0CBF024342EA8002062B0A6247
:101160003FF47CAE9BF8802EDBF8C40E12F0020F29
:10117000DBF8B02D11680A6A0CBF024342EA800214
:10118000082B0A627FF46AAE9BF8E83FDBF8182F61
:1011900013F0020F1D4B1268D96A136A14BF43EA99
:1011A00081030B43136259E6174A52F8783C013326
:1011B00042F8783CB6B14FF6FF732AE70024204688
:1011C00005B0BDE8F08F12494A7802EB420201EB0C
:1011D000C2023244527C0D2A7FF419AF802200995A
:1011E0008A7716E7039958220A4853F0CFFA4FF648
:1011F000FF730EE704490122C1F8B43A81F88A204E
:101200002DE600BF504B0908FC1000200410002000
:10121000A01900242C110020134BD0F8D8105B68C3
:10122000D0F8E02010B50446581A824200DC22B9FA
:10123000D4F8E4200A44C4F8DC2094F8D020C4F8A0
:10124000D830012A05D0D4F8D4300133C4F8D430D2
:1012500010BD04F1E801201D0FF0DEFED4F8D430FB
:101260000133C4F8D43010BD001000E02DE9F04186
:10127000DFF8008394B098F89734012B00F0628176
:10128000022B00F01181002B00F01D81B44D0DF1F7
:101290000E060DF10F0704A92B7808F593645B0681
:1012A00040F10C814FF4F07300226B80AD4B05923E
:1012B0000D920493AC480191CDE90822CDE90A22B0
:1012C00001222A718DF81C208DF83020A74A1A605F
:1012D00002F102125A6002F102129A6002F1021245
:1012E000DA6002F102121A6102F102125A6102F18D
:1012F00002129A6102F10212DA61202306930FF0C2
:101300008BFED8F898040199436AA34218BF002BBA
:1013100014BF0123002340F0C280026A002AFCD1DE
:101320008DF80E3000228DF81C300A930D93109327
:1013300012938D480191CDE90463CDE9083701236B
:1013400006930B938DF830308DF844302B788DF860
:101350000F300023CDE90E230FF05EFED8F898047D
:101360000199426A002A18BFA24214BF012200223A
:1013700040F09680036A002BFCD101238DF81C20DD
:101380000A9206930B938DF830308DF8443098F81C
:1013900030350D928DF80F300223109212928DF895
:1013A0000E30002370480191CDE90462CDE9082791
:1013B0000022CDE90E230FF02FFED8F898040199F2
:1013C000426AA24218BF002A14BF0122002268D13B
:1013D000036A002BFCD101238DF81C200A9206938E
:1013E0000B938DF830308DF8443098F831350D92EC
:1013F0008DF80F300323109212928DF80E300023D7
:1014000059480191CDE90462CDE908270022CDE9D0
:101410000E230FF001FED8F898240199536A002B8F
:1014200018BFA3423ED1136A002BFCD198F8323585
:10143000002B46D0012B00F09080032B14BFC72354
:10144000F7238DF80F3000230022474805938DF8CD
:101450001C3008930A930D93109312930123049662
:101460008DF80E3006930B938DF830308DF84430A4
:1014700000230997CDE90E230FF0CEFDD8F898345C
:101480005A6A002A18BFA2420DD1196A0029FCD15C
:101490006A88374814B0BDE8F04153F0EBB9FEE775
:1014A000FEE7FEE7FEE7FEE72D4D08230DF10E06F1
:1014B0000DF10F0704A908F593642B704FF4C37363
:1014C000F2E64723BDE70122A02108F593640593C6
:1014D0008DF80E100DF10E0604A906928DF81C3041
:1014E0000DF10F070B9220468DF830208DF8442027
:1014F00000220D9310931293019104960A97CDE95F
:1015000008330023CDE90E230FF086FDD8F8982488
:101510000199536A002B18BFA34212D1136A002B02
:10152000FCD19DF80F300E4D03F00602022A03D0C5
:1015300003F00503012B1FD008232B704FF4C37356
:10154000B2E6FEE7064D48230DF10E060DF10F073A
:1015500004A908F593642B70A4E6872371E700BF04
:101560000000002400C70024381E002410011101CF
:10157000D41E0024A019002448232B7092E600BF3B
:10158000F0B5866997B00446316996F84C210B781E
:10159000012B4CD0022B46D14D6A06F11007AF4209
:1015A00018BF002D14BF012500253CD10B6A002B6C
:1015B0003AD162F07F0207938DF8243006A90A938E
:1015C00038468DF80F200DF10F020B930F931293F5
:1015D000149304AB069201220C93062308928DF813
:1015E00038208DF84C2000220D930023CDE91023E4
:1015F0000FF012FD3269536A9F4218BF002B49D188
:10160000136A002BFCD1BDF810100125BDF8122083
:10161000BDF8143049BA52BA28465BBAE181228239
:10162000638217B0F0BD0025284617B0F0BD91F9D0
:101630000430032BD4BF00250125B3F1FF3F08BFC1
:1016400045F00105002DEED164201A4F00FB03F395
:1016500007EB030CDCF82C370CF22C70002BE3D0DA
:10166000FF2A317D9CF86D3715D0202B0BD19CF8CB
:101670006C37012B07D006234900009304AB4BF0D5
:1016800023F80028BFD0B7F8A43801339BB2A7F8DD
:10169000A438C9E7FEE7202BF5D19CF86C37012B65
:1016A000F1D04900062304AA4AF0E2FE0028AAD09D
:1016B000E9E700BFA0190024016970B50B7896B066
:1016C000044690F84D21012B4FD0022B49D14D6A91
:1016D00000F11006AE4218BF002D14BF01250025F1
:1016E0003FD10B6A002B3DD101218DF824300F939F
:1016F00062F07F0212930DF10F0014938DF80F200A
:101700000022069030468DF838108DF84C10CDE947
:101710000731CDE90A3304AB06A90C9306230D93D8
:101720000023CDE910230FF077FC2269536A9E4213
:1017300018BF002B4CD1136A002BFCD1BDF8101040
:101740000125BDF81220BDF8143049BA52BA284616
:101750005BBAA4F8D010A4F8D220A4F8D43016B004
:1017600070BD0025284616B070BD91F90430032BDA
:10177000D4BF00250125B3F1FF3F08BF45F00105A7
:10178000002DEED164201A4E00FB03F306EB030C90
:10179000DCF82C370CF22C70002BE3D0FF2A217DD3
:1017A0009CF86D3715D0202B0BD19CF86C37012B92
:1017B00007D006234900009304AB4AF085FF0028B8
:1017C000BCD0B6F8A43801339BB2A6F8A438C9E758
:1017D000FEE7202BF5D19CF86C37012BF1D04900A6
:1017E000062304AA4AF044FE0028A7D0E9E700BF78
:1017F000A01900248369F0B593F8DC208BB005466E
:10180000012A2ED0023A012A36D893F84C21EC4610
:10181000D3F89C1062F07F03194C0B708669D6F8E0
:10182000A0305F1C0FCCACE80F00D6F89C30CDE99F
:1018300000370FCCACE80F0094E803008CE80300FD
:10184000694606F110000FF0E7FBAB691A4652F843
:10185000101F486A002818BF904210D10A6A002A57
:10186000FCD1D3F8A0305A8852BAEA819A8852BA89
:101870002A82DB885BBA6B8201200BB0F0BDFEE7E9
:10188000684C0908F0B590F8DC308BB00446D0F80D
:10189000A060012B53D015D8D0F89C304FF0FF3208
:1018A00005211A605A609A60DA60D0F8E030C0F81A
:1018B000F010B3F57A7F5CD8032380F8DC30012088
:1018C0000BB0F0BD023B012BF9D890F84D3100F17F
:1018D000100ED0F89C20EC4663F07F033B4D137054
:1018E000D0F8A0305F1C0FCDACE80F00D4F89C30CE
:1018F000CDE900370FCDACE80F0095E80300754641
:101900008CE80300694670460FF086FB2269536A33
:101910009D4218BF002B11D1136A002BFCD1738894
:1019200001205BBAA4F8D030B3885BBAA4F8D230F7
:10193000F3885BBAA4F8D4300BB0F0BDFEE790F8A2
:101940004C2190F84D319B1A5B100133DBB236F815
:10195000132006EB430653BAA0F8D03073885BBA65
:10196000A0F8D230B3885BBAA0F8D43001200BB015
:10197000F0BD03691A7B2AB35B691BB390F89830FA
:1019800003B390F84C310122D0F89C0063F07F0340
:10199000C4F8A4400E49037094F84D3194F84C01FA
:1019A00084F800211B1A84F8DC20D4F8A020073327
:1019B000C4F804110132D4F89C10C4E93E23C4F8E1
:1019C000F4107CE7022384F8DC3078E7684C0908DF
:1019D0006102040838B5152400224E2105460FF097
:1019E000D9FB962012F04CFAF52128460FF002FCA4
:1019F000422807D0472807D0013C14F0FF04F0D15B
:101A0000204638BD0C24FBE70D24F9E738B58022C9
:101A100004466B210FF0BEFB642012F031FAF52171
:101A200020460FF0E7FB0546012012F0B3F8682DC1
:101A30001BD18C2120460FF0DDFB18280DD814286F
:101A400034BF002503252046072268210FF0A2FBA2
:101A5000642012F015FA284638BDA0F15403DBB219
:101A6000072B34BF03250025EDE70025F3E72DE91B
:101A7000F743064600F1100490480EF0DDFF44F2F3
:101A80003B33B08296F82101A6F84C31A0B3070988
:101A900000F00F00013F062F00F2E680DFF83082F1
:101AA00038F8172042FA00F515F001050ED0012391
:101AB0004744834D03FA00F00138104051F022FAF8
:101AC0003B7C1844262305EBC005EB8031467D4B5B
:101AD000284641F80C3F49F0CDFF6DB1AB88B3FA11
:101AE00083F24FF00043D34006D04FF0B041D1F81D
:101AF00080201343C1F8803042F21F530022762128
:101B00002046A6F84C310FF045FB00224E2120461E
:101B10000FF040FB96F8D8906B4BB9F10C0F93F88F
:101B2000A93840F0A380012B00F0B080022B15BF34
:101B3000062503254FF4DC774FF4786714BF4FF088
:101B400015084FF03F080122762120460FF022FBB6
:101B500042460C2120460FF01DFB07F0FC020D2130
:101B600020460FF017FB0E212A01204642EA1722D9
:101B70000FF010FBB9F10C0F4FF002024FF076019D
:101B800015BF4FF006084FF0150824274FF4DC77F7
:101B9000204614BF0A2506250FF0FCFA4FEA48023A
:101BA000032120460FF0F6FA07F0BC02042120467C
:101BB0000FF0F0FA05212A01204642EA17220FF021
:101BC000E9FA0022762120460FF0E4FAFF225221A2
:101BD00020460FF0DFFA0322142120460FF0DAFA34
:101BE0000022632120460FF0D5FA08226521204605
:101BF0000FF0D0FAE42120460FF0FCFA00F0EF00DD
:101C0000642140F0600220460FF0C4FA0F224E21FA
:101C100020460FF0BFFA012012F032F996F8DB30BF
:101C2000002B45D096F82031013343F00103B3FA7D
:101C300083F3C3F11F03032B3ADC244AD25C02F086
:101C40000F024F21204601920FF0A4FA0F2012F04C
:101C500017F92046019A50210FF09CFA0F2003B08B
:101C6000BDE8F04312F00CB900252FE7022B13D08A
:101C7000032B17D0012B15BF0A25082524279027F1
:101C800014BF4FF006084FF00C085CE704254FF432
:101C9000C0674FF0270856E706254FF4DC774FF072
:101CA000150850E704254FF4AC674FF025084AE7C4
:101CB0000023062286F8DB30C1E700BF00366E0144
:101CC000541A002419120408A0190024DCBD0908C4
:101CD000504B090844F23B332DE9F041064600F130
:101CE0001005A0F84C3190F82101A0B3070900F0CD
:101CF0000F00013F062F00F28E80DFF8308138F8A8
:101D0000172042FA00F414F001040ED001234744D6
:101D1000444C03FA00F00138104051F0F3F83B7CDA
:101D20001844262304EBC004E38031463E4B204692
:101D300041F80C3F49F09EFE6CB1A388B3FA83F2E0
:101D40004FF00043D34006D04FF0B041D1F880208F
:101D50001343C1F8803096F8D830072B5DD196F840
:101D60001D310224002B5AD1274680226B212846A0
:101D700050F0E4F8642012F083F807226821284626
:101D800050F0DCF8642012F07BF800226B2128462A
:101D900050F0D4F8642012F073F801226B21284629
:101DA00050F0CCF80F2012F06BF81B21FA002846F7
:101DB00050F0C4F80F2012F063F81C21E20028460E
:101DC00050F0BCF80F2012F05BF83046FEF75CFADA
:101DD0001A210246284650F0B1F80F2012F050F8B0
:101DE00096F820211921284650F0A8F8642012F016
:101DF00047F810223721284650F0A0F80F2012F0A3
:101E00003FF828460122382150F098F80F20BDE80D
:101E1000F04112F035B8002487E70324A4E7032734
:101E2000A3E700BF541A002419120408504B0908F4
:101E300010B50446FFF74EFF10226A21A0180FF0DC
:101E4000A9F9642012F01CF804480EF0F5FDA082F8
:101E50000120BDE8104011F09DBE00BF002D3101F2
:101E600044F23B332DE9F041054600F11006A0F89D
:101E70004C3190F82101A0B3070900F00F00013F99
:101E8000062F00F28E80DFF8308138F8172042FAF2
:101E900000F414F001040ED001234744434C03FA2C
:101EA00000F00138104051F02DF83B7C18442623F7
:101EB00004EBC004E38029463D4B204641F80C3F2B
:101EC00049F0D8FD6CB1A388B3FA83F24FF0004318
:101ED000D34006D04FF0B041D1F880201343C1F871
:101EE000803003226B2130460FF054F90F2011F09F
:101EF00051FE10226A2130460FF04CF90F2011F0EC
:101F000049FE00226C2130460FF044F90F2011F0F9
:101F100041FE95F82021192130460FF03BF90F20A2
:101F200011F038FE18221B2130460FF033F90F2034
:101F300011F030FE18221C2130460FF02BF90F2033
:101F400011F028FE1022372130460FF023F90F2020
:101F500011F020FE0122382130460FF01BF90F202E
:101F600011F018FE2846FEF78FF91A210246304676
:101F70000FF010F9012011F00DFE0E480EF05CFD7F
:101F8000A8822846FFF798FB95F9D23001330AD191
:101F900095F9D030013306D10620BDE8F04112F0AA
:101FA0008BB8002487E7BDE8F08100BF541A0024F5
:101FB00019120408002D3101504B090803682DE95E
:101FC000F341197801290FD002296AD15A6A0AB15E
:101FD000904266D11B6A002B63D13122742102B07A
:101FE000BDE8F0410FF0D6B83123424D85F8CC382A
:101FF000036893F90420531C53D0032A51DC642353
:1020000003FB0253D3F82C47002C4AD093F86D679A
:10201000202E46D1A46914F4004442D193F86C6791
:10202000012E3ED090F804802120D5F8D0C883F846
:102030006D07402083F86C1783F86E0705F6CC0017
:10204000C3F87047A3F856172B49C3F85007C3F8D5
:1020500058172A49C3F86017B3F8561789B2FF29F1
:1020600022D8B3F856174FF0007789B264204FEAB0
:10207000480819235043F4222E18A6F85417414655
:10208000CDF800C0DFF880C060444AF0FBFB78B1B7
:10209000002386F86C37B5F8A43801339BB2A5F855
:1020A000A43802B0BDE8F081FF214FF08077DDE772
:1020B000D6F82C2796F85417536823F07F7323F42F
:1020C000583323F47F7323F0030343EA080343EAFE
:1020D00001430B493B435360D6F8603786F86C07E1
:1020E0008B4203D007498B4218BFF22413681C436C
:1020F0001460D6E7A01900240000FFFFE5110808CE
:102100005913080805170808CC20002410B5044608
:1021100000684DF0C1F930B92046044AF7214DF06E
:10212000EBF8012010BD0020FCE700BFA0C8002490
:1021300008B503681A78012A05D00C4A00214DF031
:10214000DBF8012008BD93F904206421084B01FB52
:10215000023393F86D27202A01D0002008BDD3F860
:102160002C379B691B04F8D4E7E700BF281A00242A
:10217000A0190024014B43F820107047504000582C
:10218000BFF34F8F0549064BCA6802F4E062134360
:10219000CB60BFF34F8F00BFFDE700BF00ED00E055
:1021A0000400FA052DE9F043BDB0BFF35F8FA24AEA
:1021B0000020516A0346044621F4803151620146F1
:1021C000C2F89400C2F898300133C2F89C10112B69
:1021D000C2F8A010F6D10523C2F89430536A43F434
:1021E00080335362BFF34F8FBFF36F8F9348944A8E
:1021F0009449121A52F0CAFA9348944A9449121A0E
:1022000052F0C4FA934AD368042B00F0FC8005D83E
:10221000012B00F09D83022B00F09383864A00235C
:102220008D4C0120D2F888108C4E41F470018C4DF9
:10223000C2F8881020602361216841F0800121608C
:10224000216801432160216841F4803121602168C7
:1022500041F480512160A361E3612362A362E362E0
:1022600023636363A363E36323646364216821F4EA
:10227000802121607B492366C1F808014FF000618D
:102280004FF6FF00784B9160D16801400B43D3605B
:102290003FF0D4FDA36902460F20C3F30323A169D5
:1022A000334493F8403103F01F0322FA03F32B6306
:1022B0003DF03EFB6D4AD36813F0040FD36840F045
:1022C000A4806B4B0021694A0391D96A21F0010176
:1022D000D962DB6A03F001030393936943F440433B
:1022E0009361936903F440430393039B93699804B8
:1022F000FCD54C2200210DA85E4C52F0BBFA5E4A80
:1023000042F203031268B3EB124F4FF0000307933E
:1023100004F1140318BF1C46E268002A4FD0544B46
:102320005249D86A20F00100D862DB6A03F0010349
:1023300007938B6923F4404313438B618B6903F448
:1023400040430793079B494A93699904FCD5424B44
:102350004FF4403149484FF00108D3F8E0200027FE
:1023600042F08002C3F8E020D3F8E03003F08003AD
:102370000693069B0323816108A908930B93CDE97B
:1023800009873EF0C7FC02230DA8CDF834801E97C4
:10239000CDE91633A3781893A3881993A3791A93D8
:1023A000E3791B93237A1C9323691D934FF48033A5
:1023B0000E933FF085FA03283BD098B1FEE72B4AF5
:1023C0002B4B916941F440419161926902F4404282
:1023D0000792DA6A42F00102DA62DB6A03F0010373
:1023E0000793AFE7264B1A6812F00E0F4CD11A680C
:1023F00022F00F0242F002021A601B6803F00F0382
:10240000022B41D0FEE7D46008E723F007031D4C00
:1024100043F00203D360D4F8D01806E0D4F8D038E3
:102420005B1AB3F57A7F3FF64CAF53689F04F5D53E
:1024300047E772B6FFF7A4FE00ED00E000000000E1
:10244000083A000068420A0800000020040000204A
:10245000D99F0A085040005800440258504B0908C0
:1024600000000024008000510003FA0500480258D3
:1024700000040058080000240010005C001C0258F2
:1024800000200052A01900246D4A936903F07003E4
:102490003F2B05D8936923F0700343F04003936109
:1024A000674AD36903F070033F2B05D8D36923F043
:1024B000700343F04003D361614AD36903F4E063DE
:1024C000B3F5806F05D2D36923F4E06343F48063EE
:1024D000D3615B4A136A03F070033F2B05D8136A7C
:1024E00023F0700343F040031362554B9A691207BF
:1024F00005D49A6922F00F0242F008029A61504A0C
:10250000936923F47063936113689B017FF57AAF3D
:10251000136941F288304B4C23F0070343F0030367
:102520001361D4F8D01805E0D4F8D0385B1A834290
:1025300000F2BF81136903F03803182BF4D19369BB
:1025400003F00F03082B05D9936923F00F0343F021
:10255000080393613C4A136803F00F03022B0BD965
:10256000136823F00F0343F002031360136803F0B2
:102570000F03022B7FF446AF314A936903F07003D7
:10258000402B05D9936923F0700343F04003936116
:102590002B4AD36903F07003402B05D9D36923F08C
:1025A000700343F04003D361254AD36903F4E06329
:1025B000B3F5806F05D9D36923F4E06343F48063F6
:1025C000D3611F4A136A03F07003402B00F2698144
:1025D0001B4F3FF033FC0346686BBA69B969C2F31D
:1025E0000322164496F8402102F01F02D3402B63C9
:1025F0003DF09EF9002840F05D8110231490169064
:102600000DA80D933FF05CF9002840F049813B682C
:102610000E4943F080033B60D7F8F43043F00203E7
:10262000C7F8F430D7F8F43003F002030293029BAA
:102630000A6A074B42F001020A62D4F8D0180CE093
:1026400000440258A0190024002000520004005841
:1026500000E20400013B3FF4ECAED4F8D0289142F4
:10266000F8D0D4F8D028D4F8D0389B1A0A2BFAD94D
:102670004FF48023C14C0DA84FF000080D934FF488
:102680004013032602272E934EF062FBD4F8EC3061
:102690000DA843F00203C4F8EC30D4F8EC3003F09A
:1026A00002030193019BD4F8943043F00203C4F871
:1026B0009430D4F8943023F00203C4F89430B04B33
:1026C0001A6841F20303B3EB124FAE4BAE4A38BF68
:1026D0001A46AE4B5A601A6822F47C5242F40052F9
:1026E0001A601A6842F060021A600D96CDE92A88D5
:1026F0004EF02EFB4FF4E0430DA8CDF8E0800D9393
:10270000CDE924884EF024FB18230DA8CDF8B48021
:102710000D93CDF8C8804EF01BFBD4F8D4300521C2
:102720000DA843F48033C4F8D430D4F8D430CDF8B5
:10273000548003F48033119610970093009B4FF45C
:1027400080330D9320934FF4FA73CDE90E130423D5
:10275000CDE9138812934EF0FBFA4FF400230DA835
:102760000D934FF4003335934EF0F2FAD4F8E03085
:1027700008A9874843F00103C4F8E030D4F8E030FA
:10278000099703F001030B96CDF828800593059B6C
:102790004FF48073CDF8308008933EF0BBFA236984
:1027A00008A97C4823F0FE7343F088732361D4F8B2
:1027B000E03043F00403C4F8E030D4F8E030099787
:1027C00003F004030B96CDF8288004934FF40073B4
:1027D000049A0893CDF830803EF09CFA236923F0E8
:1027E0007E4343F0FC4323613FF028FB6A4B6B4A76
:1027F000414628631846D21A52F03CF86848694AA4
:102800006949121A51F0C2FFBFF35F8F674D464608
:10281000674C01276B6A23F480336B62C5F89480A0
:1028200023E0002A44D0D4F80080637A103414F8EE
:10283000061C1B0643EA017343EA420314F8052C05
:1028400043EA824314F8042C43EA424314F8032C6D
:10285000C5F89860013643EA0243C5F89C80032E10
:1028600043F00103C5F8A03025D06368227A002B1D
:10287000D7D0D4F80080002AD7D128F01F09A3EBC5
:102880000903202B38BF20231846994651F078FFC2
:10289000431E07FA03F2914518BF0346DAB2C4E7B4
:1028A000FEE7136A23F0700343F0400313628FE6E0
:1028B000FEE7A7E5A6E50523C5F894306B6A43F467
:1028C00080336B62BFF34F8FBFF36F8FBFF34F8FB8
:1028D000BFF36F8F0022C5F85022BFF34F8FBFF3B5
:1028E0006F8F6B6943F400336B61BFF34F8FBFF39E
:1028F0006F8FC5F88420BFF34F8FD5F8805043F613
:10290000E0762A49C5F34E34C5F3C905640104EAEB
:1029100006002B4640EA8372013BC1F86022F9D2DF
:10292000203C14F1200FF2D1BFF34F8F4B6943F4D9
:1029300080334B61BFF34F8FBFF36F8F3DB0BDE866
:10294000F08304210320FFF715FC72B6FFF718FC93
:1029500002200A4B1749D060D3F8F4200243C3F891
:10296000F420D3F8F43003400D930D9AD1F80038D9
:1029700083F30888D1F804389847FEE700440258EA
:102980000010005C7FBB22307FBB2200008400402F
:102990000000025800080258A0C80024C0DE00242D
:1029A00000C70024A0C80024DD9F0A0800ED00E055
:1029B000380000240090F01F30B5274C4FF6FF0080
:1029C000264A85B0E168264B0140264D0A43E26065
:1029D000D3F8D020C5F8D428D3F8DC2042F0005238
:1029E000C3F8DC20D3F8DC2002F000520192019AF7
:1029F000D3F8DC2042F08042C3F8DC20D3F8DC209E
:102A000002F080420292029AD3F8DC2042F00042A7
:102A1000C3F8DC20D3F8DC3003F000430393039BBE
:102A20003FF00CFAD4F8FC200F4942F080720F4BB3
:102A3000A1FB00100E49C4F8FC204FF06042800C4E
:102A4000C2F8B01F0022C5F8D8085A601A6842F0D0
:102A500001021A6005B030BD00ED00E00005FA0586
:102A600000440258A019002483DE1B43001000E03C
:102A700055CEACC508B51D480023C0F88430BFF35F
:102A80004F8F436923F480334361BFF34F8FD0F8F6
:102A9000803043F6E074C3F34E3CC3F3C90E4FEAF3
:102AA0004C1C0CEA0401734641EA8372013BC0F8F6
:102AB00074225A1CF8D1ACF1200C1CF1200FF0D17B
:102AC000BFF34F8FBFF36F8FBFF34F8FBFF36F8F86
:102AD0004369002223F400334361C0F85022BFF35E
:102AE0004F8FBFF36F8F72B6FFF74AFB00ED00E028
:102AF000800AA0F58010522808D8054B184490F899
:102B000050310D2B02D8034AD05670470020704731
:102B1000504B090804BE090803689B0AA3F58013FB
:102B2000522B5BD8F0B4414C234493F850410D2C08
:102B300052D840798608002955D04FEA900C4C2590
:102B40003B4804EB840305FB040504EB4303D5F881
:102B5000DC780225334405FA0CFCFD6800EB8306A3
:102B60004CEA0505C6F8541DC6F8642DFD60EFF368
:102B70001185502383F312882C2304FB03F3C1181F
:102B8000D1F8502D5AB3131DC1F8742D294A2C21A8
:102B9000294E04FB01F106EB010C14310A4452F8F2
:102BA000041B19B1196052F8043C04339445F6D162
:102BB0000022EDB21A6085F311882C2303FB040375
:102BC000D3F8743D43B34C2303FB0400D0F8DC2856
:102BD000D36843F00103D360F0BC70477047154AD7
:102BE00024331344D3E712484C23022503FB040388
:102BF00005FA06FCD3F8DC7804EB8403FD6804EBEB
:102C0000430325EA0C053344FD6000EB8305C5F85A
:102C1000541DC5F8642DAAE74C2303FB0400D0F82B
:102C2000DC28D36823F00103D360D5E7504B0908B3
:102C3000A0190024F02600241427002403689B0A0E
:102C4000A3F58013522B00D97047154A134493F80B
:102C500050310D2BF8D84FF04C0C10B4114C79B901
:102C6000417902220CFB03405DF8044B21FA02F388
:102C7000D0F8DC189A40CB6823EA0203CB60704797
:102C8000417902220CFB03405DF8044B21FA02F368
:102C9000D0F8DC1802FA03F3CA681343CB6070471C
:102CA000504B0908A019002403689B0AA3F5801360
:102CB000522B12D8094A134493F850210D2A0CD8EC
:102CC0004079022306494FF04C0CD8400CFB02120D
:102CD0008340D2F8DC28DB4313617047504B09086E
:102CE000A019002401490248FDF7A6BCF0260024E3
:102CF0000000014001490248FDF79EBCF026002477
:102D00000000014002494FF08040FDF795BC00BF34
:102D10001C27002401490248FDF78EBC48270024E7
:102D20000004004001490248FDF786BC74270024D6
:102D30000008004001490248FDF77EBCA02700249E
:102D4000000C00402DE9F843194E3569F3681D4029
:102D500010D04FF00047DFF85C80B5FA85F227FA13
:102D600002F31F2A6FEA030305EA0305336103D068
:102D7000002DF2D1BDE8F883D8F8543EA3B103F199
:102D8000FF3900231FFA89F9C8F8543ED8F8504E8D
:102D9000002CEDD023682046494698476468002CF3
:102DA000F8D1002DD9D1E5E7F16A1FFA81F9EDE7F5
:102DB00000100040A019002401490248FDF73CBC66
:102DC000242800240004014010B5064C064804F6EF
:102DD0008461FDF731FC04F6DC610448BDE8104075
:102DE000FDF72ABCA019002400040140001C00408B
:102DF00001490248FDF720BC50280024001800407B
:102E000001490248FDF718BCA82800240020004012
:102E100001490248FDF710BCD428002400400140BD
:102E200001490248FDF708BC002900240044014084
:102E300001490248FDF700BC2C290024004801404C
:102E40002DE9F0474FF425728EB000218A4851F0E9
:102E500011FD8A4B8A4F4FF08041D3F8F02007F1E3
:102E60002004B94642F0010207F53065A246DFF8BA
:102E70001882C3F8F02007F52E66D3F8F02002F090
:102E800001020092009AD3F8E82042F00102C3F850
:102E9000E820D3F8E82002F001020192019AD3F869
:102EA000E82042F00202C3F8E820D3F8E82002F05C
:102EB00002020292029AD3F8E82042F00402C3F818
:102EC000E820D3F8E82002F004020392039AD3F832
:102ED000E82042F00802C3F8E820D3F8E82002F026
:102EE00008020492049AD3F8E82042F01002C3F8D2
:102EF000E820D3F8E82002F010020592059AD3F8F2
:102F0000E82042F02002C3F8E820D3F8E82002F0DD
:102F100020020692069AD3F8F02042F00202C3F88B
:102F2000F020D3F8F02002F002020792079AD3F8BB
:102F3000E82042F04002C3F8E820D3F8E82002F08D
:102F400040020892089AD3F8E82042F08002C3F8C1
:102F5000E820D3F8E82002F080020992099AD3F819
:102F6000E82042F48072C3F8E820D3F8E82002F4A5
:102F700080720A920A9AD3F8F02042F48032C3F8A1
:102F8000F020D3F8F02002F480320B920B9AD3F8A1
:102F9000F02042F40032C3F8F020D3F8F02002F41D
:102FA00000320C920C9AD3F8F02042F48022C3F83D
:102FB000F020D3F8F03003F480230D930D9B4246AC
:102FC000002301E056F833208A420CD00133112B44
:102FD000F8D10AF1200A002049F044FF55450DD0F0
:102FE0005AF8201CEBE7274A0AF1200A02EBC30338
:102FF000B3F8880C49F036FF5545F1D107F52E6737
:1030000009F120094F4512D099F80630002BF7D06E
:1030100099F804000EF0C6FC02210028F0D099F8BF
:10302000082009F120090EF051FB4F45ECD14FF07B
:103030008041154F154E3A46002301E056F83320E3
:103040008A420BD00133112BF8D12034002049F0F3
:1030500009FFAC420CD054F8201CECE7094A20349C
:1030600002EBC303B3F8880C49F0FCFEAC42F2D18A
:103070000EB0BDE8F08700BFF026002400440258DF
:10308000F44C0908504B090800000140D4570908C6
:10309000704700BF1F4B984210B50ED003F58063F8
:1030A00098420AD01C4A03F58043984218BF9042C8
:1030B00003D003F5806398421BD13EF0E1FE174B2D
:1030C0001749DC69DA69C4F3022CC2F3022201EB6E
:1030D0000C0393F8403103F01F03D8400F4B114904
:1030E0001B69C3F3C03342EAC303CB5C03FB00F0AC
:1030F00010BD3EF0C5FE094B0949DC69DA69C4F32D
:103100000214C2F302120B1993F8403103F01F03AB
:10311000D840E3E70000014000400140004402586D
:10312000504B0908F0BD0908830AA3F58013522B00
:103130004AD82DE9F041684D84B02B4493F8506192
:103140000D2E3ED8DFF8B4814C25044605FB0685DC
:10315000D5F8DC38834234D001391746C5F8DC088D
:1031600089B2C5F8E818FFF795FF0023B0FBF7F226
:10317000C5F8EC38013AC5F8E43808F6DC00C5F8C3
:10318000F03806EBC603C5F8E02806EB430300EB76
:1031900083003FF0F3F8514B9C4216D0B4F1804FBE
:1031A00013D0A3F57C439C420FD003F580639C426F
:1031B0000BD003F580639C4269D003F578439C42B1
:1031C00065D004B0BDE8F08170474C234FF48051C6
:1031D000002203FB0683009193F81819039201293A
:1031E000CDE90122EDD00221D3F8DC08012483F8D7
:1031F00019193B4985682940816083F8194983F88A
:1032000018294C22002302FB06820293CDE90033E9
:1032100092F81839012BD4D0D2F8DC3802212F488B
:1032200082F8191983425A6899682CD000F5806099
:10323000834228D022F070022A485A602A4A9342D8
:1032400018BFB3F1804F0CBF01220022834208BF98
:1032500042F0010200F58060834208BF42F00102A3
:1032600012B9224A934202D121F0800199604C2385
:103270000121002203FB068686F8191986F8182911
:1032800004B0BDE8F0811A4810405860ECE7002116
:103290004FF48053CDE900314C2303FB068393F8B0
:1032A0001829012ACDE902118BD0D3F8DC080222BB
:1032B00083F819290A4A85682A4082600D4A83F8F2
:1032C00018190121944283F819199AD00A4B9C428B
:1032D0007FF477AF95E700BF504B0908000001402D
:1032E0008800CEFF000800400004004000180040A5
:1032F0008FFF0FFF000C004000040140A0190024C4
:1033000070B504460068830AA3F58013522B05D8D4
:103310002C4D2B4493F850610D2E00D970BDFFF752
:1033200003FF294B4C2202FB063696F81939012B74
:1033300013D021680023254A254801E050F83320A6
:1033400091421CD00133112BF8D10121002048F00B
:10335000AFFC204B01221A6070BD0223D6F8DC2896
:1033600086F819391C4B91680B40062BE1D0B3F558
:10337000803FDED0136843F001031360D9E705EB0B
:10338000C3030121134D93F88A4C204648F090FC6A
:1033900004F01F03012162091B2C01FA03F345F815
:1033A000223006D1192048F083FC4FF000732B60C7
:1033B00070BD2E2CB2D12C2048F07AFC4FF48053F3
:1033C0006B6070BD504B0908A0190024000001403B
:1033D000D457090800E100E007000100D0F85011BF
:1033E0002422F8B5C0F8D02104460A68002380687A
:1033F00004F5A87522F001020A600B604B608B6037
:1034000094F805C0C4F8D83184F8CC31C4F8D03170
:10341000C4F86831C4F8D431C4F87031C4F86431E8
:103420004FEA8C23B44A03F48053C4F85401914208
:10343000C4F858314FEA0C3303F40053C4F85C313C
:103440004FEA0C2303F48063C4F8603100F0AE81CE
:10345000237913F0010002D00422C4F8642113F090
:10346000020305D0D4F8642142F00802C4F86421B4
:103470001CF0010F0DD048B1D4F8782142F00202BF
:10348000C4F878214FF48032C4F88021002B40F03A
:1034900081819A4B03F12C0053F8042B944200F0E5
:1034A0003F819842F8D11CF0080F40F04F81D4F8CA
:1034B000D031002B00F09C8124232846C4F8D03161
:1034C0000B6823F001030B603FF0E0F8012815D0F2
:1034D000D4F87831002B40F09181D4F8503128464F
:1034E0005A6822F490425A609A6822F02A029A603E
:1034F0001A6842F001021A604DF0FCFB2379DA07EA
:103500006DD5D4F82C21002A00F05F810023D4F877
:10351000341104F13C06E2634FF48062C4F8B81041
:103520003046E264C4E91133C4E91433C4E9183302
:10353000C4E91A334FF48033E3654FF48073A36515
:103540004EF05EF930463CF0E7FED4F8D431C4F8D2
:10355000C861202B65673DD1E368626999B2CAB33F
:10356000B1FA81F04009A9B394F8CCC1BCF1010FC4
:1035700030D02227C4F8D80194F870C0C4F8D471B0
:103580005F4FA4F8AC110121A7675E4F8C45C4F8CA
:10359000A821E7675C4FC4F88C0084F8CC11C4F80C
:1035A00088700ED094F8717084F87010012FD4F8E0
:1035B000501100F02B814FF4006384F87000C4F8C0
:1035C0009030102100222023C4F8D81184F8CC2197
:1035D000C4F8D031E26B23795268C4F844219B07C8
:1035E00040F18880D4F83021002A00F0E3800023E5
:1035F000D4F8381104F1B406C4F8B420C4F8C030CB
:103600004022C4F8D0303046C4E93233C4E93633FE
:10361000C4E938334FF48033C4F8D4304FF48063B6
:10362000C4E92E12C4F8C4304EF0EAF830463CF03B
:1036300073FE002840F0B980D4F8B420334B3448EE
:103640003449824218BF9A42C4F8C461C4F8EC50AD
:1036500000F160000CBF012300232F4C8A4208BFF9
:1036600043F001033031A24208BF43F0010360344C
:103670008A4208BF43F001033031824208BF43F061
:10368000010300F568708A4208BF43F0010301F5A9
:103690005C71A24208BF43F0010304F568748A42DA
:1036A00008BF43F001033031824208BF43F00103F9
:1036B00060308A4208BF43F001033031A24208BFA4
:1036C00043F001038A4208BF43F0010330318242D4
:1036D00008BF43F001038A4208BF43F001033BB92E
:1036E0000E4BD31AB3FA83F35B09002B00F0A780CB
:1036F00000235360F8BD00BF000C0058BC1B002025
:10370000F9D607082DD7070831D70708100002405F
:10371000280002404000024058000240B804024025
:10372000002C3FF4C0AE94F8F831002B3FF4BBAE50
:10373000D4F878311CF0080F43F00803C4F878314E
:103740004FF40043C4F888313FF4B1AED4F8D0311F
:10375000002B50D024232846C4F8D0310B6823F026
:1037600001030B603EF092FF01283FF4C7AED4F88E
:103770007831002B46D1D4F8503128465A6822F4CB
:1037800090425A609A6822F022029A609A6842F047
:103790000802ACE6D4F8783143F00103C4F878317C
:1037A0004FF40033C4F87C3173E6FEE70423C4F819
:1037B00074314DE6D4F8DC311A6842F080021A60A8
:1037C0001A6842F040021A60F8BDD4F8DC21116892
:1037D00041F480711160916841F0010191601168BC
:1037E00041F020011160116841F010011160F6E60E
:1037F00084F8CC3160E684F8CC31ABE728463FF062
:103800001FFA6AE628463FF01BFAB4E79BB2243160
:1038100030463CF0A1FF00287FF4D3AED4F85031FD
:1038200084F8CC011A6842F480721A609A6842F0F7
:1038300001029A609A6842F040029A60CAE65360B8
:10384000F8BD00BFF8B50446EFF31185502383F3AC
:103850001288D0F830311B6803F001031BB1EDB2C0
:1038600085F31188F8BDD0F8D021D0F8D4110A43DF
:1038700002F02102212AF2D0D0E909218A424FD058
:103880004BD800691A46431A9BB2A262002284F800
:10389000E021D4F8D021202AE1D1A2695118DED04C
:1038A000B3FA83F25209002BD9D094F8CC01012845
:1038B000D5D02120A4F8A6314FF0010CC4F8D821AE
:1038C000C4F8D001D4F8C401C4F8A011A4F8A431FC
:1038D00084F8CCC170B31D4E90F834E0C6631C4E22
:1038E000E645026506641B4EC6640CD090F8356050
:1038F000D4F85071664580F834C015D04FF4006399
:1039000080F834204365102100222023C4F8D81108
:1039100084F8CC21C4F8D031A1E7531A9BB2B4E7A4
:10392000012380F8E0319AE707F128023CF014FF08
:103930000028E8D1D4F8503100224021196284F8DF
:10394000CC219A6842F080029A6088E7D1D60708B5
:10395000F5D6070831D707082DE9F843474C04EBA3
:103960008004D4F8C04A002C43D0D4F8E8511F4654
:10397000434B0646A1602046236090466B68C4F81E
:10398000DC31AB6B63616B6BA361EB8FE360AB8F7F
:1039900023613C4BC4F8E4310EF04EF96B68A88DFE
:1039A000C4F85031002861D194F8EE010DF0FAFF0F
:1039B00002213A07034694F8EC9184F8F9111BD5DB
:1039C00058B317F0510F4FF00B0206F1010614BF68
:1039D0000A211A2117F0410FC671827114BF4023CA
:1039E000202394F8EF2119430DF070FED4F82C3108
:1039F00043B32046BDE8F88318F0020F0DD060B144
:103A00000B22FB07827106F10102C27131D401233E
:103A1000202184F8F9310DF097FD48460DF0C2FFE2
:103A20000028E3D018F0010FE0D00C22013602216B
:103A3000C671827194F8ED210DF048FED4F82C3156
:103A4000002BD6D195F8321095F83000890948F04E
:103A50002FF995F8303001220B4903F01F005B0964
:103A60008240204641F82320BDE8F88349F0FAF966
:103A70009AE794F8EF210DF029FECEE7FC10002024
:103A80005C580908F106040800E100E02DE9F04166
:103A9000BD4C86B004EB0017D7F8E43F002B00F0D4
:103AA000D68005460601B7F8EE0F49F0DBF9B7F806
:103AB000EE3F012103F01F025B09023B01FA02F213
:103AC000082B0FD8DFE813F020012801300138015E
:103AD00040010900480150015801AC4BD96F21EA5F
:103AE0000202DA67A319013593F8E80FEDB20DF081
:103AF00059FF10B11223C5718371A31993F8E90F0F
:103B00000DF050FF074610B11323C5718371A3193F
:103B100093F8EA0F0DF046FF10B11423C5718371BD
:103B200004EB060838462E2198F8EC2F0CF09EFE88
:103B300098F8EA0F0DF036FF0546C8B10168944BBE
:103B4000944A0B4498F8ED7F9B0A02EB4303B3F8C9
:103B50003C0D49F087F9AB88286801A90597022731
:103B600001930023CDE90273032304933DF0D2F8BF
:103B7000344494F8E80F0DF015FF94F8EB2F2E2144
:103B80000CF074FED4F8E43F83491A688B4222F0AB
:103B900001021A605ED0814A934200F08A8002F5E9
:103BA0008062934274D1794AD2F8901041F4004176
:103BB000C2F89010D2F8901021F40041C2F8901091
:103BC000DA6842F00042DA609A6822F4F0729A6091
:103BD0001A68D6073BD472499D68D1F88020D1F885
:103BE000884044EA02000A6F10436E4A2A4010439C
:103BF000CA6F9860DD68C86EED0079D50243486FE2
:103C0000DE68B4F5800F42EA0002886F664D42EA32
:103C10000002D1F8840005EA060542EA0002886E37
:103C200000F4C02600F4006042EA060242EA0502FF
:103C3000DA601A6822F4006242EA00021A6002D1D5
:103C4000D1F88C201A641A6D22F001021A6506B0B0
:103C5000BDE8F0814D4AD2F8981041F48051C2F885
:103C60009810D2F8981021F48051C2F898104F4A59
:103C70009342A5D1454AD2F89C1041F02001C2F8E8
:103C80009C10D2F89C1021F02001C2F89C1097E7FC
:103C9000474A93421BD13D4AD2F8981041F4005153
:103CA000C2F89810D2F8981021F40051C2F8981078
:103CB00086E7364AD2F8901041F48041C2F890105D
:103CC000D2F8901021F48041C2F89010CFE7394A21
:103CD0009342CCD12D4AD2F8981041F48011C2F809
:103CE0009810D2F8981021F48011C2F8981067E764
:103CF000B2F1806F82D1B0F5800F7FF47FAF1D6885
:103D000045F480551D6079E7204BD3F8981021EADF
:103D10000202C3F89820E5E61C4BD3F8901021EA84
:103D20000202C3F89020DDE6184BD3F8941021EA84
:103D30000202C3F89420D5E6144BD3F8801021EA90
:103D40000202C3F88020CDE6104BD3F8841021EA9C
:103D50000202C3F88420C5E60C4BD3F88C1021EA8C
:103D60000202C3F88C20BDE6084BD3F8881021EA84
:103D70000202C3F88820B5E6044BD3F89C1021EA70
:103D80000202C3F89C20ADE6A019002400440258AA
:103D90000000FEA7504B09080030014000380040E9
:103DA00000000024E0FFBF8FFFFF39D80014005847
:103DB0000034014000500140114A037A0168D35C8D
:103DC00010B4CC58CA1824F00104CC501368DB0797
:103DD000FCD4037D1F2B09D9203B20225DF8044B26
:103DE00002FA03F343F01803CB60704720225DF81A
:103DF000044B02FA03F343F018038B60704700BFD3
:103E0000E4BD0908F8B507680646D7E90454A0617F
:103E10002B7D1F2B49D9203B2022286802FA03F36F
:103E200043F01803C360237D1F2B48D92022203B79
:103E300002FA03F3226843F01803D3606368002298
:103E400069680A601A601A6842F010021A60BA695A
:103E5000297A4CF001FEFA69217A20684CF0FCFDC9
:103E600033682E681A6A5B6891685868184A02407D
:103E700020680A4317495A602A7A8D5C725942F0C9
:103E800001027251227A895C425842F0010242508A
:103E90009A6842F440429A601A6842F001021A603D
:103EA0001A6842F400721A60F8BD2022286802FAEB
:103EB00003F343F018038360237D1F2BB6D8202221
:103EC00002FA03F3226843F018039360B6E700BFD9
:103ED0000000FFFFE4BD09080138074B074A00EB6B
:103EE000C00003EB8000D0F8900090420CBFA020EF
:103EF000A12048F0B7BF00BF00000024000002402E
:103F000001382DE9E84100EBC000134D1E46134B6C
:103F100005EB800590460F46D5F8900098420CBFFF
:103F2000A020A12048F09EFFB5F9A6004FEA981105
:103F3000C5F8A070C5F8A86047F0BAFEB5F9A6307C
:103F4000002B07DB03F01F0001225B0904498240BC
:103F500041F82320BDE8E881000000240000024071
:103F600000E100E02DE9F04FB34B8FB00024DFF803
:103F7000F0820093B14BA3F5576BB14E0025DFF8EB
:103F8000BC92B30AA3F58013522B59D85B4493F823
:103F900050310D2B54D818F90370AA4B13F8A23CDA
:103FA000012B40F00F81012F40D14FF0000A514604
:103FB000384610F057FE10F0DDFE90F800C0BCF15E
:103FC000000F18BFBCF1540F14BF4FF0010C4FF09D
:103FD000000C40F0F3800AF1040A1FFA8AFABAF1E1
:103FE000100FE4D1002C00F0B680934A00210EE0BF
:103FF0005B4493F850310D2B10D818F90330BB42B5
:104000000FD0013102F58672A14280F2A080906843
:1040100003689B0AA3F58013522BE9D90023BB4206
:10402000EFD1437999F805009842EAD10135082D7E
:1040300014D059F8206FB30AA3F58013522BA5D9D9
:10404000804B13F8A23C012BF0D001220027022B59
:10405000ABD1002AA9D00135082DEAD1009B01344B
:1040600003F58673042C009387D1774B4FF001083A
:10407000DFF8F0A19946754A08F1FF3352F8802C19
:104080009A4261DDDAF80C60002E00F0908331680E
:10409000B78801F12741B7FA87F701F57E01C7F12B
:1040A0001F07890A6A4B5D68002D40F3A68008331C
:1040B000002405E0013403F58673AC4200F09B80D8
:1040C0001A688A42F6D14FF486735B4ACAF80470C4
:1040D00003FB04245FFA88F3CAF8184016B1F371A1
:1040E0000323B3717A000321012301FA02F0A16CCA
:1040F00003FA02F20143A164216D0A432265544A86
:104100001278002A63D0626DBB401A43626516B113
:104110003268B188916199B20122D4F8AC00FBF702
:104120006FFF08F101082046FCF76EF80123B8F193
:10413000090F0AF1200A89F8113009F118090AF863
:10414000043C0AF8033C96D10FB0BDE8F08FBCF1F7
:10415000000F7FF46BAFD9F80C0000223D4B04E058
:1041600001320C33102A00F02A8359688842F7D1B3
:1041700052B2304699F805100DF0C8F8364A40683A
:10418000002351680133884215D0102B02F124021C
:10419000F7D14FF0FF3303EBC303304A02EB830345
:1041A00093F8AC30002B7FF441AF244B03EB451563
:1041B000009B9D6052E7DBB2013BECE7002C7FF4F3
:1041C00014AF33E7B7F1080218BF01223FE707F148
:1041D00010029340626D134363651EB1B388326869
:1041E0001B04936101210022D4F8AC00B94089B2CC
:1041F000FBF706FF95E7032C6CDC154B4FF486723A
:1042000002FB05321369002B00F0C7829160013177
:10421000DC6882F81111542182F810116A1C0C49D3
:104220004A60084A0B4912F88D2C01929AF8102026
:10423000029200221DE000BF0C000020C0580908B7
:1042400000040140982A0024241C0020FC100020B7
:1042500004000020D002002490000024000000246C
:1042600004BE09083C04002001320C31102A00F081
:10427000A68248688442F7D152B2597918680DF085
:1042800045F8924A4FF48673DFF878B203FB0523B2
:10429000D0E90142C3E9074200235A46516801337D
:1042A0008C421CD0102B02F12402F7D1884BAB4674
:1042B00093F88820002A00F0D98086488649874AEA
:1042C000874BC0F8101BC0F8082BC0F8183B0FB084
:1042D000BDE8F08F0323834A02F88E3CEDE7DBB2A2
:1042E0007B494FF48672013B02FB05F203EBC303EB
:1042F000009201EB830375498A1893F8AC100846C5
:104300000391B2F810110028D7D1A3F8AC10009B8C
:1043100075499B1001FB03F31169C3EBC3040868E3
:10432000724903EBC30301EB441401F5607101EB27
:1043300043133168C2F8B440C2F8FC303323D16073
:10434000C2F8B8308C23C2F80031FEF7A3FE009B00
:10435000674AD418019B062B00F00782072B654B98
:10436000654908BF1946654B654A18BF1A464FF4A0
:104370008673B0FBF2F2B0FBF1F1013A5348013918
:1043800003FB050392B2A3F8BC10A3F874202266C5
:1043900000220193A4F858206266E265009A02F1B7
:1043A000580100F1080211441A6910684CF0D2FA61
:1043B000019B1A6910680192036843F0800303604F
:1043C00053790C2B08D8DFE803F07907070771074A
:1043D0000707680707075F004FF486733B4A03FB34
:1043E000052359694FF0600C02680023CDF818C00E
:1043F0004FF4807C089322F00102CDF830C04FF0DA
:10440000010C0B930D930223CDF81CC04FF00A0C46
:10441000CDE909C3026006AA4CF020F92B4B4FF4FA
:10442000867202FB0532019B526919680023012A3A
:1044300000F09281042A00F08F81102A00F0B281EE
:10444000402A00F08981B2F5807F5DD0B2F5806F9F
:104450005AD0B2F5805F00F0AE81B2F5803F4FF0E8
:104460003C030CBF08224FF400624FE0174A4FF4A0
:10447000867707FB0B2797F8111197F8102183F81F
:10448000891083F8882018E74FF486730F4A4FF499
:10449000805103FB05235961A4E74FF486730B4A4F
:1044A0004FF4807103FB052359619BE74FF486733A
:1044B000064A102103FB0523596193E74FF48673E5
:1044C000024A012103FB052359618BE70400002008
:1044D00000000024FC1000205DF0040859F00408DE
:1044E00065F00408982A00246B4CA407E02C0124F2
:1044F0000C0000201055220044950800D0DD060075
:1045000040771B00900000240822042301F11800CA
:1045100050F803C042EA0C02C250019B18790028EF
:1045200040F02681A94B4FF4867202FB053200232E
:104530001069D1690068026842F001020260DBF88C
:1045400004200133914200F00C81102B0BF1240B5D
:10455000F5D14FF0FF339E4A03EBC30302EB830315
:10456000D3F890009B4B98420CBFA020A12048F0AC
:1045700079FC964A4FF4867303FB05231B695A792D
:104580000C2A00F2EB80944901EB4202B2F870CEA3
:10459000D3F800E04FF486738C4A9049704603FBD1
:1045A0000523A3F818C0002306E0904200F0FD8028
:1045B0000133042B00F0068151F83320002AF4D196
:1045C000874A86461046D2F86C230132C0F86C2325
:1045D00000EBC302DB00C2F870E3194403982346E2
:1045E0009022B1F804E0DFF810B24CEA0E0CA1F80A
:1045F00004C07C49FFF784FC4FF48673734A4FF480
:10460000403E40214FF4805C03FB05250023E86910
:10461000026842F010020260026842F01402026076
:10462000C4E91F33C4E92733C4E929334FF4806355
:104630002A6AC4F898E0C4F88430A167C4F89420CA
:10464000D5F8B820C4F89020C2B220F0FF00103A8C
:10465000ABFB0231EA68009B1832C4F888C04FF403
:10466000804C0909226703F170025F4B1A44D5F8A8
:10467000B430C4F88CC063674CF0EEF9E869009B75
:104680004FF40031D0F800E04FF4006C03F1B802B1
:10469000554BC4F820E0D0F814E01A440023C4F8C5
:1046A00024E0D0F804E0C4F828E0D0F808E0C4F82A
:1046B0002CE0D0F80CE0C4F8C830C4F830E0C4E90D
:1046C0003033C4E93933C4E93B332B6AC4F8E01012
:1046D00000934FF48063C4F8CC30009BC4F8DC3006
:1046E000D5F80031C4F8D830C3B220F0FF00103B39
:1046F000ABFB0331EB68C4F8D0C010330909C4F830
:10470000B830D5F8FC3000934FF48043C4F8D4306F
:10471000009BC4F8BC304CF09FF9EA695FFA88F35B
:10472000116861635169A1635168E1639168216413
:10473000D1686164116841F010011160116841F0A5
:1047400014011160029ACAF804708AF81020CAF89D
:104750000C60CAF81840C2E40822D7E64FF0000CFB
:1047600016E7DBB20393013BF5E62049204AFEE55C
:1047700005910DF017F90599049048B1019B0221AC
:104780001A7A0CF0A3FF049B5422DA80019B19686B
:104790004B6C43F400434B64C4E60223154A02F811
:1047A0008E3C8AE54FF40062B0E6DB0015E74FF07F
:1047B000FF37394676E44FF400620423A6E600236F
:1047C0005B68FFDE00239B88FFDE00BF0400002043
:1047D0000000002400000240504B09086C14002027
:1047E000FC100020010000000C000020882A1100AD
:1047F000A0BB0D00982A0024ABAAAAAA00207047EB
:10480000244BD3F82C279169106810B4CC0538D507
:10481000040626D5D3F870074FF4807440F00100E9
:10482000C3F870074805D46130D5D3F870074FF44A
:104830008064890540F00800C3F87007D46108D58A
:10484000D3F870174FF4007041F00201C3F87017ED
:10485000D061D3F8701711F00B0F0DD15DF8044B38
:1048600070474C05F5D48C05F3D50006E8D4D3F891
:10487000701711F00B0FF1D007485DF8044B3CF0B6
:104880008FBB4C05EFD50006CFD4E2E78905D7D41E
:10489000DFE700BFA0190024CC200024084810B492
:1048A000D0F82C37D0F8604799691A682CB12346A4
:1048B00000F22C705DF8044B18475DF8044B70470C
:1048C000A0190024244BD3F890279169106810B4E4
:1048D000CC0538D5040626D5D3F8D4074FF4807418
:1048E00040F00100C3F8D4074805D46130D5D3F8AF
:1048F000D4074FF48064890540F00800C3F8D4075A
:10490000D46108D5D3F8D4174FF4007041F00201F8
:10491000C3F8D417D061D3F8D41711F00B0F0DD111
:104920005DF8044B70474C05F5D48C05F3D50006B3
:10493000E8D4D3F8D41711F00B0FF1D007485DF885
:10494000044B3CF02DBB4C05EFD50006CFD4E2E77D
:104950008905D7D4DFE700BFA01900243021002447
:10496000084810B4D0F89037D0F8C44799691A684D
:104970002CB1234600F5F2605DF8044B18475DF852
:10498000044B7047A0190024244BD3F8F4279169F5
:10499000106810B4CC0538D5040626D5D3F83808ED
:1049A0004FF4807440F00100C3F838084805D46122
:1049B00030D5D3F838084FF48064890540F00800FA
:1049C000C3F83808D46108D5D3F838184FF400700C
:1049D00041F00201C3F83818D061D3F8381811F04B
:1049E0000B0F0DD15DF8044B70474C05F5D48C05C9
:1049F000F3D50006E8D4D3F8381811F00B0FF1D036
:104A000007485DF8044B3CF0CBBA4C05EFD50006E7
:104A1000CFD4E2E78905D7D4DFE700BFA01900248F
:104A200094210024084810B4D0F8F437D0F828486E
:104A300099691A682CB1234600F2F4705DF8044BB2
:104A400018475DF8044B7047A0190024244BD3F895
:104A500058289169106810B4CC0538D5040626D5BD
:104A6000D3F89C084FF4807440F00100C3F89C0810
:104A70004805D46130D5D3F89C084FF4806489058B
:104A800040F00800C3F89C08D46108D5D3F89C18FE
:104A90004FF4007041F00201C3F89C18D061D3F8C4
:104AA0009C1811F00B0F0DD15DF8044B70474C05AD
:104AB000F5D48C05F3D50006E8D4D3F89C1811F092
:104AC0000B0FF1D007485DF8044B3CF069BA4C0578
:104AD000EFD50006CFD4E2E78905D7D4DFE700BFE2
:104AE000A0190024F8210024084810B4D0F8583840
:104AF000D0F88C4899691A682CB1234600F6580002
:104B00005DF8044B18475DF8044B7047A01900246A
:104B10002DE9F84FD94F6423044603FB0073D3F803
:104B20001467002E00F0A881D3F81C571DB1AB7993
:104B3000002B40F0A181642303FB0473D3F820977A
:104B4000B9F1000F04D099F80630002B40F09481A1
:104B5000631CDBB215B11522EB71AA71B9F1000F1C
:104B600004D0162289F8073089F80620308B4FF0E0
:104B7000090848F077F928460BF072FF48460BF019
:104B80006FFF112128460CF0DFFC112148460CF084
:104B9000DBFC4FF0330A02E00A200EF0FBFF284650
:104BA0000CF0C8FC10B9BAF1010AF5D128460BF097
:104BB00051FF05200EF0EEFF28460BF051FF0520B7
:104BC0000EF0E8FFB8F10108E3D128464FF0640B7E
:104BD0000BF040FF05200EF0DDFF48460BF03AFFDA
:104BE0000BFB04FB05200EF0D5FF28460BF038FF29
:104BF00007EB0B0A05200EF0CDFF48460BF030FF07
:104C00009AF826379AF824272846002B9C4D14BF83
:104C10003E211E210BF02AFE9AF826375D449AF8B1
:104C20002527002B4846DFF8789214BF3E211E212D
:104C30000BF01CFE4C22414628464FF01BFEDAF8D2
:104C40001437904A5B689342CAF82C37DFF854A2B5
:104C500040F02A813DF014F9DAF82030C3F3021352
:104C60009FED897A9FED895AB0EE084A9944F7EE94
:104C7000003A99F840314FF0000903F01F03D84083
:104C8000642307EE900A03FB0473F8EE677AB3F827
:104C900028B7C7EE275A07EE90BA9FED7D7AF8EE57
:104CA000E77AC7EE274ADFED7B7AB0EE007AE5EED1
:104CB000877AA5EE875A25EE844A37EE856A74EE28
:104CC000E72ABBF5C87F40F2145309F1010ED7BFA4
:104CD0001946322364234FF49670C8BF782007EE3C
:104CE00090EAD4BF4FF4167C4FF4827C0344B8EEB4
:104CF000E77AC8BF4FF4FA7107EE903A27EE257AAB
:104D000001EB0C03F8EEE76A86EE873A73EE636A0E
:104D1000FCEEE67A17EE902A07EE90CAB8EEE73A74
:104D200007EE903AF8EEE77A23EE243AC3EE276ACC
:104D300036EEC53A72EEE66AC3EE077A77EEE37AAC
:104D4000FCEEE77A17EE901AC6EE877A77EEE37AF2
:104D5000FCEEE77A17EE903A03F1020C0CEB010A35
:104D6000F0EE466A07EE90AAF8EE677AE7EE276A59
:104D7000F4EEE64AF1EE10FA00F39B805FFA82FC53
:104D8000BCF10F0F00F29780323807EE900AF8EE70
:104D9000E77A77EEC47AC7EE876AFCEEE67A17EE1A
:104DA00090CA5FFA8CF00F2800F2858088B2FF2845
:104DB00000F2818098B2FF287DD840EA097310057F
:104DC0004FEA0C4200F07F6002F47F02034313437A
:104DD000314A02EA012143EA01086420012300FB71
:104DE000047400272846C4F83837C4F83087C4F85C
:104DF0003477C4F83C77C4F84077C4F84877C4F8EF
:104E00004C774CF0AFFC94F86D37202BD9B21AD107
:104E100094F86C37012B16D0242384F86D37D4F81E
:104E20002C371A6822F001021A601A6822F48052A4
:104E30001A601A681A601A6842F001021A6084F84F
:104E40006D1784F86C770021F07E46F031FFF37E19
:104E50000124124D5A0903F01F03002104FA03F341
:104E600045F82230B07E46F023FFB37E5A0903F0A6
:104E70001F039C4045F82240BDE8F88FA01900248C
:104E8000CC200024001C0058286B6E4E00001643F6
:104E9000002474490000704200FFFF0000E100E0C0
:104EA000504B0908004402583CF0EAFFDAF81C3085
:104EB000D4E6013152E7BEF10F0F8ED0F14600E784
:104EC0002DE9F04F2DED028B95B08B461746054628
:104ED0009DF8801003930291002800F0B080604E8E
:104EE00000230479A6F18C0002E0152B00F0A780C6
:104EF00003EB43020133815CA142F6D132442868BE
:104F0000697912F98A2CD3B20F2B00F298800CF039
:104F1000FDF9002800F09380DFF8548198F894336D
:104F20000193002B00F09880D5E9054307930123F6
:104F30000193002C00F08A804A4ED6F894309C42AF
:104F400000F0DA84D6F8B8309C4200F0D784D6F866
:104F5000DC30A34200F0D484D6F80031A34200F044
:104F6000D184D6F824319C4200F0CE84D6F8483162
:104F70009C4200F07884D6F86C319C4200F0C684E4
:104F8000D6F890319C4200F0C384D6F8B431A342E5
:104F900000F0C384D6F8D8319C4200F0C084D6F823
:104FA000FC319C4200F0BD84D6F820329C4200F0D7
:104FB000BD84D6F844329C4200F0BD84D6F86832F5
:104FC0009C4200F0BA84D6F88C329C4200F0BB843C
:104FD000D6F8B0329C4200F0B8844FF0FF33002185
:104FE0000593019B002B45D0059B03EBC302DB001F
:104FF00006EB8202089392F8AC30392B00F05A830A
:105000002F68BA0AA2F58012522A00F2608216486E
:10501000024492F850210D2A00F25982134810F8E8
:1050200002C09BB90598089A0244392006EB820217
:1050300082F8ADC082F8AC0041B101932EE0DFF8F8
:10504000308098F89433002B7FF46EAF002015B0B9
:10505000BDEC028BBDE8F08FD0E90143079368E710
:10506000982A002400000024504B090804BE0908B7
:10507000FC100020059A02EBC203D20006EB83036A
:10508000089293F8AC20002AE0D10137032283F87C
:10509000AD7083F8AC200029D8D02F684FF4B472DB
:1050A000DFF8049498F8903302FB0BF109EB01024E
:1050B0000A91C2F8944609F5A7620A4408EE902ABC
:1050C000ABB3D8F89823BA4200F02484012B2ED039
:1050D000D8F87424BA4200F02684022B27D0D8F8DE
:1050E0005025BA4200F02484032B20D0D8F82C2677
:1050F000BA4200F02484042B19D0D8F80827BA4209
:1051000000F02584052B12D0D8F8E427BA4200F02D
:105110002284062B0BD0D8F8C028BA4200F028848D
:10512000072B04D0D8F89C29BA4200F0A6835A1C59
:10513000DC210493D2B201FB0381134688F890234B
:10514000C1F89873013BDC22049806934FF4B473C2
:1051500003FB0B91CD4B02FB003381F811B6C1F874
:1051600098362B790B914FEA131A03F00F020AF1CC
:10517000FF3ABAF1060F00F28682C54B33F81A00E7
:10518000099340FA02F3DB0740F17D82012393404B
:10519000013B18404DF0B6FEBD4B029A534402F05D
:1051A000010193F810A0BB4B0131824499F8000033
:1051B00003EBCA02002800F07981029880F0010018
:1051C0000290C00740F1968253F83A00B2F804C04A
:1051D000C0F818C049014FF4B47C41F002010CFB47
:1051E0000B9CCCF81416C9B2CCF84055CCF80C2660
:1051F0000B91297A0C91A849099B01440D924FEA21
:10520000912C03EB4C01B1F83C0D47F02BFEA14B68
:105210000D9A53F83A000C9B139393880F930B9BB2
:10522000590902231093002311910FA912933BF007
:1052300071FD069B049A934200F06882039B063B33
:10524000DBB20B930A994FF4B4739448002201F532
:10525000967103FB0B934118C3F86826C3F86C26BC
:1052600008EE101A6021C3F87026C3F8641602997C
:10527000C3F8742611F00200C3F87826C3F87C2620
:10528000C3F88026099000F0A1814A0002F00202D2
:10529000C3F878260122C3F86C264FF4B4734FF498
:1052A0008032002103FB0B93C3F888260A22C3F83F
:1052B0007016C3F884260222C3F88C16C3F8902611
:1052C00068790C2800F27981714A98F8941302EBFE
:1052D000800CDCF898AEC3F854A6002900F0AE822A
:1052E0004FF4B47303FB0B93D3F89826C2F8CC4069
:1052F000C3F89446019B002B00F0A1814FF4B472D7
:10530000002302FB0B92C2F81836C2F81C36C2F812
:105310002036C2F82436C2F82836C2F82C36C2F835
:105320003036C2F83436C2F83836C2F83C36C2F8E5
:105330004036C2F84436C2F84836C2F84C36C2F895
:10534000503698F89433002B00F062812968544855
:1053500001F14C0C049901EBC10100EB4110D2F8B2
:105360009816C1F8D4000799C2F81C06C2F83C167A
:105370000321C2F818C6C2F84816039A0021082A69
:105380004FF4B47202FB0B92C2F84C16C2F85016DE
:10539000C2F82816C2F824164FF04001C2F82016B1
:1053A0004FF00401C2F844160CBF06211221C2F8C6
:1053B00038164FF48061C2F82C164FF48051C2F8B1
:1053C00030164FF48041C2F834164FF40031C2F861
:1053D0004016019A002A00F006814FF4B4710B9830
:1053E00001FB0B910228C1F8944600F2DC80039A7D
:1053F000082A274A02EB8002D2F88C0E294AB2FB17
:10540000F0F202F12302C1F85C260CBF5F211321E8
:105410004FF4B47418EE900A029304FB0B94D4F882
:1054200098269180FBF722FC029B002B00F09380D2
:10543000019B002B00F08F8018EE102A5146384651
:105440004BF00CF9BAF1010F7CD0BAF1040F79D00E
:10545000BAF1100F00F0F981BAF1400F72D0BAF52D
:10546000807F37D0BAF5806F34D0BAF5805F00F016
:105470007682BAF5803F00F07F827B6D07F154029F
:1054800043F400637B656FF480632BE09414002089
:10549000504B0908541A00240000FEA73C050020C8
:1054A000C0DE002400D012130400002049010B9834
:1054B00041F00201C0F84055C0F80C26C0F814169F
:1054C000C9B253F83A000B91297A0C9193E64FF048
:1054D000000CA6E5FB6907F11C0243F00803FB6121
:1054E0006FF0040311680B4013603B6843F0010345
:1054F0003B60099B002B5BD03B6A43EA8A033B621B
:10550000069B049A93420BD17B6C43F400437B646B
:105510003B6843F080033B603B6843F001033B6022
:1055200099F80030002B40F0A78001234FF4B471AC
:10553000184601FB0B9181F8473515B0BDEC028B85
:10554000BDE8F08FBB6907F1180243F00803BB61A7
:105550006FF00403C6E7059A089BC948134494F802
:10556000114606EB8306D6F8903083420CBFA0208C
:10557000A12047F077FCC34B0221B6F9A600C6F87C
:10558000A030C6F8A84046F093FBB6F9A630002B31
:10559000FFF652AF03F01F0101225B098A40BA49AE
:1055A00041F8232048E78D22C1F85C2613212FE71C
:1055B0003B6A43EA0A033B62A2E7C3F8541698F831
:1055C0009433002B00F028818A4689E64A0002F0D5
:1055D0000202C3F874260122C3F868264FF48072D1
:1055E000C3F87C2659E60A9AE1B2A84B24F0FF00E2
:1055F000E03210391A44A64BA3FB013109094BF0E4
:105600002BFA226898F8943342F010022260E4E604
:105610000799C2F84836C2F83C160BEB8B010BEB2E
:1056200041009C4901EBC001C2F89C16C2F81C164F
:105630002968687934310144C2F818169DE6236858
:10564000E1B224F0FF0023F0010310392360904BF6
:10565000A3FB013109094BF04FFA089B059A13444B
:1056600006EB8303D3F89000854B98420CBFA02033
:10567000A12047F0F7FB41E62B684FF6FF716A79EE
:105680003433995051E7029B99F8000003F001016F
:105690000131002840F01E814A014FF4B47342F0FA
:1056A000020203FB0B93C3F81426C3F80C06C3F8DD
:1056B0004055BEE52F6892F8AD90BA0AA2F5801267
:1056C000522A00F2CB80744800EB020C09909CF83F
:1056D00050C1BCF10D0F40F2CB804FF0000CE14502
:1056E0003FF4DCAC0998104490F850210D2A7FF665
:1056F00095ACABE4002A00F0F080B2F804C053F897
:105700003A004FEA0C4CC0F818C063E54FF0FF3286
:1057100000231192614AADF83C3097421093CDE9D5
:10572000123300F0C480B7F1804F00F030815C4B41
:105730009F4200F02A8103F580639F4200F0298197
:1057400003F580639F4200F0268103F580639F424A
:1057500000F0258103F580639F4200F01E8103F570
:1057600070439F4200F01F81A3F56C439F4200F0FD
:10577000188103F580639F4200F01F8103F5806369
:105780009F4200F0188103F590339F4200F08E8015
:1057900003F580639F4200F00C8103F580639F4214
:1057A00000F00581002F00F00081002047F05AFB37
:1057B0003B68384623F001033B60FDF76BFC039B1D
:1057C00007EE900A063BF8EE677ADAB2022A0B92ED
:1057D00073D8314BDFED336A03EB820303F68C623F
:1057E00092ED007AB8EE477A87EE870A30EE260A05
:1057F0004EF04EFB039B0138082BADF83C0014BF64
:1058000013235F23119300230FA938461093CDE98A
:1058100012334BF09FF815E59A464FF0FF321946C8
:105820004FF4B47303FB0B93A3F84415D3F8981605
